{
  "_format": "hh-sol-artifact-1",
  "contractName": "StakingPool",
  "sourceName": "contracts/StakingPool.sol",
  "abi": [
    {
      "inputs": [
        {
          "internalType": "contract IERC20",
          "name": "_token",
          "type": "address"
        }
      ],
      "stateMutability": "nonpayable",
      "type": "constructor"
    },
    {
      "inputs": [],
      "name": "InsufficientStake",
      "type": "error"
    },
    {
      "inputs": [],
      "name": "InvalidAmount",
      "type": "error"
    },
    {
      "inputs": [],
      "name": "NotOwner",
      "type": "error"
    },
    {
      "anonymous": false,
      "inputs": [
        {
          "indexed": true,
          "internalType": "address",
          "name": "user",
          "type": "address"
        },
        {
          "indexed": false,
          "internalType": "uint256",
          "name": "amount",
          "type": "uint256"
        }
      ],
      "name": "Staked",
      "type": "event"
    },
    {
      "anonymous": false,
      "inputs": [
        {
          "indexed": true,
          "internalType": "address",
          "name": "user",
          "type": "address"
        },
        {
          "indexed": false,
          "internalType": "uint256",
          "name": "amount",
          "type": "uint256"
        }
      ],
      "name": "Unstaked",
      "type": "event"
    },
    {
      "inputs": [],
      "name": "owner",
      "outputs": [
        {
          "internalType": "address",
          "name": "",
          "type": "address"
        }
      ],
      "stateMutability": "view",
      "type": "function"
    },
    {
      "inputs": [
        {
          "internalType": "address",
          "name": "erc20",
          "type": "address"
        },
        {
          "internalType": "address",
          "name": "to",
          "type": "address"
        },
        {
          "internalType": "uint256",
          "name": "amount",
          "type": "uint256"
        }
      ],
      "name": "rescueTokens",
      "outputs": [],
      "stateMutability": "nonpayable",
      "type": "function"
    },
    {
      "inputs": [
        {
          "internalType": "uint256",
          "name": "amount",
          "type": "uint256"
        }
      ],
      "name": "stake",
      "outputs": [],
      "stateMutability": "nonpayable",
      "type": "function"
    },
    {
      "inputs": [
        {
          "internalType": "address",
          "name": "user",
          "type": "address"
        }
      ],
      "name": "stakedBalance",
      "outputs": [
        {
          "internalType": "uint256",
          "name": "",
          "type": "uint256"
        }
      ],
      "stateMutability": "view",
      "type": "function"
    },
    {
      "inputs": [
        {
          "internalType": "address",
          "name": "",
          "type": "address"
        }
      ],
      "name": "stakes",
      "outputs": [
        {
          "internalType": "uint256",
          "name": "",
          "type": "uint256"
        }
      ],
      "stateMutability": "view",
      "type": "function"
    },
    {
      "inputs": [],
      "name": "token",
      "outputs": [
        {
          "internalType": "contract IERC20",
          "name": "",
          "type": "address"
        }
      ],
      "stateMutability": "view",
      "type": "function"
    },
    {
      "inputs": [],
      "name": "totalStaked",
      "outputs": [
        {
          "internalType": "uint256",
          "name": "",
          "type": "uint256"
        }
      ],
      "stateMutability": "view",
      "type": "function"
    },
    {
      "inputs": [
        {
          "internalType": "address",
          "name": "newOwner",
          "type": "address"
        }
      ],
      "name": "transferOwnership",
      "outputs": [],
      "stateMutability": "nonpayable",
      "type": "function"
    },
    {
      "inputs": [
        {
          "internalType": "uint256",
          "name": "amount",
          "type": "uint256"
        }
      ],
      "name": "unstake",
      "outputs": [],
      "stateMutability": "nonpayable",
      "type": "function"
    }
  ],
  "bytecode": "0x60a060405234801561001057600080fd5b506040516107ae3803806107ae83398101604081905261002f91610052565b6001600160a01b0316608052600080546001600160a01b03191633179055610082565b60006020828403121561006457600080fd5b81516001600160a01b038116811461007b57600080fd5b9392505050565b6080516107036100ab6000396000818161017b0152818161023101526102bf01526107036000f3fe608060405234801561001057600080fd5b50600436106100935760003560e01c80638da5cb5b116100665780638da5cb5b14610112578063a694fc3a1461013d578063cea9d26f14610150578063f2fde38b14610163578063fc0c546a1461017657600080fd5b806316934fc4146100985780632e17de78146100cb57806360217267146100e0578063817b1cd214610109575b600080fd5b6100b86100a63660046105f2565b60016020526000908152604090205481565b6040519081526020015b60405180910390f35b6100de6100d9366004610614565b61019d565b005b6100b86100ee3660046105f2565b6001600160a01b031660009081526001602052604090205490565b6100b860025481565b600054610125906001600160a01b031681565b6040516001600160a01b0390911681526020016100c2565b6100de61014b366004610614565b610291565b6100de61015e36600461062d565b61035c565b6100de6101713660046105f2565b610400565b6101257f000000000000000000000000000000000000000000000000000000000000000081565b806000036101be5760405163162908e360e11b815260040160405180910390fd5b33600090815260016020526040902054818110156101ef576040516378de4a6960e11b815260040160405180910390fd5b6101f9828261067f565b336000908152600160205260408120919091556002805484929061021e90849061067f565b9091555061025890506001600160a01b037f000000000000000000000000000000000000000000000000000000000000000016338461044d565b60405182815233907f0f5bb82176feb1b5e747e28471aa92156a04d9f3ab9f45f28e2d704232b93f759060200160405180910390a25050565b806000036102b25760405163162908e360e11b815260040160405180910390fd5b6102e76001600160a01b037f00000000000000000000000000000000000000000000000000000000000000001633308461050a565b3360009081526001602052604081208054839290610306908490610698565b92505081905550806002600082825461031f9190610698565b909155505060405181815233907f9e71bc8eea02a63969f509818f2dafb9254532904319f9dbda79b67bd34a5f3d9060200160405180910390a250565b6000546001600160a01b03163314610387576040516330cd747160e01b815260040160405180910390fd5b60405163a9059cbb60e01b81526001600160a01b0383811660048301526024820183905284169063a9059cbb906044016020604051808303816000875af11580156103d6573d6000803e3d6000fd5b505050506040513d601f19601f820116820180604052508101906103fa91906106ab565b50505050565b6000546001600160a01b0316331461042b576040516330cd747160e01b815260040160405180910390fd5b600080546001600160a01b0319166001600160a01b0392909216919091179055565b60405163a9059cbb60e01b81526001600160a01b038381166004830152602482018390526000919085169063a9059cbb906044016020604051808303816000875af11580156104a0573d6000803e3d6000fd5b505050506040513d601f19601f820116820180604052508101906104c491906106ab565b9050806103fa5760405162461bcd60e51b815260206004820152600f60248201526e1514905394d1915497d19052531151608a1b60448201526064015b60405180910390fd5b6040516323b872dd60e01b81526001600160a01b038481166004830152838116602483015260448201839052600091908616906323b872dd906064016020604051808303816000875af1158015610565573d6000803e3d6000fd5b505050506040513d601f19601f8201168201806040525081019061058991906106ab565b9050806105cf5760405162461bcd60e51b81526020600482015260146024820152731514905394d1915497d19493d357d1905253115160621b6044820152606401610501565b5050505050565b80356001600160a01b03811681146105ed57600080fd5b919050565b60006020828403121561060457600080fd5b61060d826105d6565b9392505050565b60006020828403121561062657600080fd5b5035919050565b60008060006060848603121561064257600080fd5b61064b846105d6565b9250610659602085016105d6565b9150604084013590509250925092565b634e487b7160e01b600052601160045260246000fd5b8181038181111561069257610692610669565b92915050565b8082018082111561069257610692610669565b6000602082840312156106bd57600080fd5b8151801515811461060d57600080fdfea2646970667358221220df9b36973c249903253b66f8bb468c58793ecbff3b02c084eca96b4a337887c764736f6c63430008140033",
  "linkReferences": {},
  "deployedLinkReferences": {}
}